{
  "transactions": [
    {
      "hash": "0x14a8d8b2e70fa59829a2e9b68da78ab3035d33e34280332e4ed9e112ac52fc7e",
      "transactionType": "CALL",
      "contractName": null,
      "contractAddress": "0xd24445002233fcd122ed44c66186cf59b512a2aa",
      "function": "mintNFT(string)",
      "arguments": [
        "ipfs://QmbL6Qd1435L4Yc2WR1rufRLDMoQL5XQbDXRoQQhhohmoQ"
      ],
      "transaction": {
        "from": "0xf19b5b53ae9de45a024ba5132488afa3d8ae8a35",
        "to": "0xd24445002233fcd122ed44c66186cf59b512a2aa",
        "gas": "0x2cf61",
        "value": "0x0",
        "input": "0xfb37e88300000000000000000000000000000000000000000000000000000000000000200000000000000000000000000000000000000000000000000000000000000035697066733a2f2f516d624c365164313433354c34596332575231727566524c444d6f514c355851624458526f515168686f686d6f510000000000000000000000",
        "nonce": "0xb",
        "chainId": "0xaa36a7"
      },
      "additionalContracts": [],
      "isFixedGasLimit": false
    }
  ],
  "receipts": [
    {
      "status": "0x1",
      "cumulativeGasUsed": "0xe1810e",
      "logs": [
        {
          "address": "0xd24445002233fcd122ed44c66186cf59b512a2aa",
          "topics": [
            "0xddf252ad1be2c89b69c2b068fc378daa952ba7f163c4a11628f55a4df523b3ef",
            "0x0000000000000000000000000000000000000000000000000000000000000000",
            "0x000000000000000000000000f19b5b53ae9de45a024ba5132488afa3d8ae8a35",
            "0x0000000000000000000000000000000000000000000000000000000000000001"
          ],
          "data": "0x",
          "blockHash": "0x0a1a7a7fdced0ec48922aa842a506464cf711561fb547408f069ac7b563b74e8",
          "blockNumber": "0x916cfa",
          "blockTimestamp": "0x6904c770",
          "transactionHash": "0x14a8d8b2e70fa59829a2e9b68da78ab3035d33e34280332e4ed9e112ac52fc7e",
          "transactionIndex": "0x3a",
          "logIndex": "0x4d",
          "removed": false
        }
      ],
      "logsBloom": "0x00000000000000000000000000000000200000000000000000000000000000000000000000000000000000000000000000000000000800100000000000040000000000000000000000000008000000000000000000040000000000000000000000000000020000000000000000000800000000000000000000000010000000000000000000001000000000000000000000000000000000000000000000000000000000004000000000000000000000000000000000000000000000000000000000000002000000000000000000000000000000000000000000000000000060000100000000000000000000000000000000000000000000000000000000000000",
      "type": "0x2",
      "transactionHash": "0x14a8d8b2e70fa59829a2e9b68da78ab3035d33e34280332e4ed9e112ac52fc7e",
      "transactionIndex": "0x3a",
      "blockHash": "0x0a1a7a7fdced0ec48922aa842a506464cf711561fb547408f069ac7b563b74e8",
      "blockNumber": "0x916cfa",
      "gasUsed": "0x1ebe3",
      "effectiveGasPrice": "0xf424a",
      "from": "0xf19b5b53ae9de45a024ba5132488afa3d8ae8a35",
      "to": "0xd24445002233fcd122ed44c66186cf59b512a2aa",
      "contractAddress": null
    }
  ],
  "libraries": [],
  "pending": [],
  "returns": {},
  "timestamp": 1761920889675,
  "chain": 11155111,
  "commit": "79ac4f5"
}