{
  "transactions": [
    {
      "hash": "0x069ea0f563eb6030308ebaa7fb159a6779647f3e568008402cd8717a7f4993cb",
      "transactionType": "CALL",
      "contractName": null,
      "contractAddress": "0xd24445002233fcd122ed44c66186cf59b512a2aa",
      "function": "mintNFT(string)",
      "arguments": [
        "https://ipfs.io/ipfs/QmWfGpfUCSGPAjCrZw5kWHjVBcNkRrAgz6fragHmXJNE8B"
      ],
      "transaction": {
        "from": "0xf19b5b53ae9de45a024ba5132488afa3d8ae8a35",
        "to": "0xd24445002233fcd122ed44c66186cf59b512a2aa",
        "gas": "0x34fe6",
        "value": "0x0",
        "input": "0xfb37e8830000000000000000000000000000000000000000000000000000000000000020000000000000000000000000000000000000000000000000000000000000004368747470733a2f2f697066732e696f2f697066732f516d57664770665543534750416a43725a77356b57486a5642634e6b527241677a3666726167486d584a4e4538420000000000000000000000000000000000000000000000000000000000",
        "nonce": "0xd",
        "chainId": "0xaa36a7"
      },
      "additionalContracts": [],
      "isFixedGasLimit": false
    }
  ],
  "receipts": [
    {
      "status": "0x1",
      "cumulativeGasUsed": "0xa40b9f",
      "logs": [
        {
          "address": "0xd24445002233fcd122ed44c66186cf59b512a2aa",
          "topics": [
            "0xddf252ad1be2c89b69c2b068fc378daa952ba7f163c4a11628f55a4df523b3ef",
            "0x0000000000000000000000000000000000000000000000000000000000000000",
            "0x000000000000000000000000f19b5b53ae9de45a024ba5132488afa3d8ae8a35",
            "0x0000000000000000000000000000000000000000000000000000000000000003"
          ],
          "data": "0x",
          "blockHash": "0x600acbb5310dbf1a83e085a55eff5bbbdc190fbc890253fe1114f90ea53b97aa",
          "blockNumber": "0x916e08",
          "blockTimestamp": "0x6904d418",
          "transactionHash": "0x069ea0f563eb6030308ebaa7fb159a6779647f3e568008402cd8717a7f4993cb",
          "transactionIndex": "0x4c",
          "logIndex": "0x95",
          "removed": false
        }
      ],
      "logsBloom": "0x00000000000000000000000000000000200000000000000000000000000000000000000000000000000000000000000000000000020800100000000000000000000000000000000000000008000000000000000000000000000000000000000000000000020000000000000000000800000000000000000000000010000000000000000000001000000000000000000000000000000000000000000000000000000000004000000000000000000000000000000000800000000000000000400000000002000000000000000000000000000000000000000000000000000020000100000000000000000000000000000000000000000000000000000000000000",
      "type": "0x2",
      "transactionHash": "0x069ea0f563eb6030308ebaa7fb159a6779647f3e568008402cd8717a7f4993cb",
      "transactionIndex": "0x4c",
      "blockHash": "0x600acbb5310dbf1a83e085a55eff5bbbdc190fbc890253fe1114f90ea53b97aa",
      "blockNumber": "0x916e08",
      "gasUsed": "0x243c3",
      "effectiveGasPrice": "0xf424f",
      "from": "0xf19b5b53ae9de45a024ba5132488afa3d8ae8a35",
      "to": "0xd24445002233fcd122ed44c66186cf59b512a2aa",
      "contractAddress": null
    }
  ],
  "libraries": [],
  "pending": [],
  "returns": {},
  "timestamp": 1761924130022,
  "chain": 11155111,
  "commit": "79ac4f5"
}