{
  "transactions": [
    {
      "hash": "0x84b34e507f97082bc387efdc526cf6e64b5d2de35441b5821b511904e362563d",
      "transactionType": "CALL",
      "contractName": null,
      "contractAddress": "0xd24445002233fcd122ed44c66186cf59b512a2aa",
      "function": "mintNFT(string)",
      "arguments": [
        "https://ipfs.io/ipfs/QmWfGpfUCSGPAjCrZw5kWHjVBcNkRrAgz6fragHmXJNE8B"
      ],
      "transaction": {
        "from": "0xf19b5b53ae9de45a024ba5132488afa3d8ae8a35",
        "to": "0xd24445002233fcd122ed44c66186cf59b512a2aa",
        "gas": "0x34fe6",
        "value": "0x0",
        "input": "0xfb37e8830000000000000000000000000000000000000000000000000000000000000020000000000000000000000000000000000000000000000000000000000000004368747470733a2f2f697066732e696f2f697066732f516d57664770665543534750416a43725a77356b57486a5642634e6b527241677a3666726167486d584a4e4538420000000000000000000000000000000000000000000000000000000000",
        "nonce": "0xc",
        "chainId": "0xaa36a7"
      },
      "additionalContracts": [],
      "isFixedGasLimit": false
    }
  ],
  "receipts": [
    {
      "status": "0x1",
      "cumulativeGasUsed": "0x7c548f",
      "logs": [
        {
          "address": "0xd24445002233fcd122ed44c66186cf59b512a2aa",
          "topics": [
            "0xddf252ad1be2c89b69c2b068fc378daa952ba7f163c4a11628f55a4df523b3ef",
            "0x0000000000000000000000000000000000000000000000000000000000000000",
            "0x000000000000000000000000f19b5b53ae9de45a024ba5132488afa3d8ae8a35",
            "0x0000000000000000000000000000000000000000000000000000000000000002"
          ],
          "data": "0x",
          "blockHash": "0xda7e16e794eb38464d9a22956e88cf37e80e74c2cb86a35f2e604d1c2d8f1acc",
          "blockNumber": "0x916d2e",
          "blockTimestamp": "0x6904c9e0",
          "transactionHash": "0x84b34e507f97082bc387efdc526cf6e64b5d2de35441b5821b511904e362563d",
          "transactionIndex": "0x3f",
          "logIndex": "0x82",
          "removed": false
        }
      ],
      "logsBloom": "0x04000000000000000000000000000000200000000000000000000000000000000000000000000000000000000000000000000000000800100000000000000000000000000000000000000008000000000000000000000000000000000000000000000000020000000000000000000800000000000000000000000010000000000000000000001000000000000000000000000000000000000000000000000000000000004000000000000100000000000000000000000000000000000000000000000002000000000000000000000000000000000000000000000000000020000100000000000000000000000000000000000000008000000000000000000000",
      "type": "0x2",
      "transactionHash": "0x84b34e507f97082bc387efdc526cf6e64b5d2de35441b5821b511904e362563d",
      "transactionIndex": "0x3f",
      "blockHash": "0xda7e16e794eb38464d9a22956e88cf37e80e74c2cb86a35f2e604d1c2d8f1acc",
      "blockNumber": "0x916d2e",
      "gasUsed": "0x243c3",
      "effectiveGasPrice": "0xf4249",
      "from": "0xf19b5b53ae9de45a024ba5132488afa3d8ae8a35",
      "to": "0xd24445002233fcd122ed44c66186cf59b512a2aa",
      "contractAddress": null
    }
  ],
  "libraries": [],
  "pending": [],
  "returns": {},
  "timestamp": 1761921514173,
  "chain": 11155111,
  "commit": "79ac4f5"
}